{
  "_format": "hh-sol-artifact-1",
  "contractName": "TipJar",
  "sourceName": "contracts/TipJar.sol",
  "abi": [
    {
      "inputs": [],
      "stateMutability": "nonpayable",
      "type": "constructor"
    },
    {
      "inputs": [],
      "name": "getAllTips",
      "outputs": [
        {
          "components": [
            {
              "internalType": "address",
              "name": "from",
              "type": "address"
            },
            {
              "internalType": "uint256",
              "name": "amount",
              "type": "uint256"
            },
            {
              "internalType": "string",
              "name": "message",
              "type": "string"
            }
          ],
          "internalType": "struct TipJar.Tip[]",
          "name": "",
          "type": "tuple[]"
        }
      ],
      "stateMutability": "view",
      "type": "function"
    },
    {
      "inputs": [],
      "name": "owner",
      "outputs": [
        {
          "internalType": "address",
          "name": "",
          "type": "address"
        }
      ],
      "stateMutability": "view",
      "type": "function"
    },
    {
      "inputs": [
        {
          "internalType": "string",
          "name": "_message",
          "type": "string"
        },
        {
          "internalType": "uint256",
          "name": "_desiredAmount",
          "type": "uint256"
        }
      ],
      "name": "sendTip",
      "outputs": [],
      "stateMutability": "payable",
      "type": "function"
    },
    {
      "inputs": [
        {
          "internalType": "uint256",
          "name": "",
          "type": "uint256"
        }
      ],
      "name": "tips",
      "outputs": [
        {
          "internalType": "address",
          "name": "from",
          "type": "address"
        },
        {
          "internalType": "uint256",
          "name": "amount",
          "type": "uint256"
        },
        {
          "internalType": "string",
          "name": "message",
          "type": "string"
        }
      ],
      "stateMutability": "view",
      "type": "function"
    },
    {
      "stateMutability": "payable",
      "type": "receive"
    }
  ],
  "bytecode": "0x6080604052348015600f57600080fd5b50336000806101000a81548173ffffffffffffffffffffffffffffffffffffffff021916908373ffffffffffffffffffffffffffffffffffffffff16021790555061102c8061005f6000396000f3fe6080604052600436106100435760003560e01c8063399ddbbd146100885780638da5cb5b146100b3578063a5c68c59146100de578063c580ec0a1461011d57610083565b36610083576040517f08c379a000000000000000000000000000000000000000000000000000000000815260040161007a90610656565b60405180910390fd5b600080fd5b34801561009457600080fd5b5061009d610139565b6040516100aa9190610872565b60405180910390f35b3480156100bf57600080fd5b506100c861028a565b6040516100d591906108a3565b60405180910390f35b3480156100ea57600080fd5b50610105600480360381019061010091906108fe565b6102ae565b60405161011493929190610973565b60405180910390f35b61013760048036038101906101329190610ae6565b610390565b005b60606001805480602002602001604051908101604052809291908181526020016000905b8282101561028157838290600052602060002090600302016040518060600160405290816000820160009054906101000a900473ffffffffffffffffffffffffffffffffffffffff1673ffffffffffffffffffffffffffffffffffffffff1673ffffffffffffffffffffffffffffffffffffffff168152602001600182015481526020016002820180546101f090610b71565b80601f016020809104026020016040519081016040528092919081815260200182805461021c90610b71565b80156102695780601f1061023e57610100808354040283529160200191610269565b820191906000526020600020905b81548152906001019060200180831161024c57829003601f168201915b5050505050815250508152602001906001019061015d565b50505050905090565b60008054906101000a900473ffffffffffffffffffffffffffffffffffffffff1681565b600181815481106102be57600080fd5b90600052602060002090600302016000915090508060000160009054906101000a900473ffffffffffffffffffffffffffffffffffffffff169080600101549080600201805461030d90610b71565b80601f016020809104026020016040519081016040528092919081815260200182805461033990610b71565b80156103865780601f1061035b57610100808354040283529160200191610386565b820191906000526020600020905b81548152906001019060200180831161036957829003601f168201915b5050505050905083565b600081116103d3576040517f08c379a00000000000000000000000000000000000000000000000000000000081526004016103ca90610c14565b60405180910390fd5b80341015610416576040517f08c379a000000000000000000000000000000000000000000000000000000000815260040161040d90610ca6565b60405180910390fd5b600160405180606001604052803373ffffffffffffffffffffffffffffffffffffffff16815260200134815260200184815250908060018154018082558091505060019003906000526020600020906003020160009091909190915060008201518160000160006101000a81548173ffffffffffffffffffffffffffffffffffffffff021916908373ffffffffffffffffffffffffffffffffffffffff1602179055506020820151816001015560408201518160020190816104d89190610e72565b50505060008060009054906101000a900473ffffffffffffffffffffffffffffffffffffffff1673ffffffffffffffffffffffffffffffffffffffff163460405161052290610f75565b60006040518083038185875af1925050503d806000811461055f576040519150601f19603f3d011682016040523d82523d6000602084013e610564565b606091505b50509050806105a8576040517f08c379a000000000000000000000000000000000000000000000000000000000815260040161059f90610fd6565b60405180910390fd5b505050565b600082825260208201905092915050565b7f557365207468652073656e645469702066756e6374696f6e20746f206c65617660008201527f652061206d65737361676520616e6420656e7375726520796f7572207469702060208201527f6973207265636f726465642e0000000000000000000000000000000000000000604082015250565b6000610640604c836105ad565b915061064b826105be565b606082019050919050565b6000602082019050818103600083015261066f81610633565b9050919050565b600081519050919050565b600082825260208201905092915050565b6000819050602082019050919050565b600073ffffffffffffffffffffffffffffffffffffffff82169050919050565b60006106cd826106a2565b9050919050565b6106dd816106c2565b82525050565b6000819050919050565b6106f6816106e3565b82525050565b600081519050919050565b600082825260208201905092915050565b60005b8381101561073657808201518184015260208101905061071b565b60008484015250505050565b6000601f19601f8301169050919050565b600061075e826106fc565b6107688185610707565b9350610778818560208601610718565b61078181610742565b840191505092915050565b60006060830160008301516107a460008601826106d4565b5060208301516107b760208601826106ed565b50604083015184820360408601526107cf8282610753565b9150508091505092915050565b60006107e8838361078c565b905092915050565b6000602082019050919050565b600061080882610676565b6108128185610681565b93508360208202850161082485610692565b8060005b85811015610860578484038952815161084185826107dc565b945061084c836107f0565b925060208a01995050600181019050610828565b50829750879550505050505092915050565b6000602082019050818103600083015261088c81846107fd565b905092915050565b61089d816106c2565b82525050565b60006020820190506108b86000830184610894565b92915050565b6000604051905090565b600080fd5b600080fd5b6108db816106e3565b81146108e657600080fd5b50565b6000813590506108f8816108d2565b92915050565b600060208284031215610914576109136108c8565b5b6000610922848285016108e9565b91505092915050565b610934816106e3565b82525050565b6000610945826106fc565b61094f81856105ad565b935061095f818560208601610718565b61096881610742565b840191505092915050565b60006060820190506109886000830186610894565b610995602083018561092b565b81810360408301526109a7818461093a565b9050949350505050565b600080fd5b600080fd5b7f4e487b7100000000000000000000000000000000000000000000000000000000600052604160045260246000fd5b6109f382610742565b810181811067ffffffffffffffff82111715610a1257610a116109bb565b5b80604052505050565b6000610a256108be565b9050610a3182826109ea565b919050565b600067ffffffffffffffff821115610a5157610a506109bb565b5b610a5a82610742565b9050602081019050919050565b82818337600083830152505050565b6000610a89610a8484610a36565b610a1b565b905082815260208101848484011115610aa557610aa46109b6565b5b610ab0848285610a67565b509392505050565b600082601f830112610acd57610acc6109b1565b5b8135610add848260208601610a76565b91505092915050565b60008060408385031215610afd57610afc6108c8565b5b600083013567ffffffffffffffff811115610b1b57610b1a6108cd565b5b610b2785828601610ab8565b9250506020610b38858286016108e9565b9150509250929050565b7f4e487b7100000000000000000000000000000000000000000000000000000000600052602260045260246000fd5b60006002820490506001821680610b8957607f821691505b602082108103610b9c57610b9b610b42565b5b50919050565b7f4465736972656420616d6f756e74206d7573742062652067726561746572207460008201527f68616e20302e0000000000000000000000000000000000000000000000000000602082015250565b6000610bfe6026836105ad565b9150610c0982610ba2565b604082019050919050565b60006020820190508181036000830152610c2d81610bf1565b9050919050565b7f506c656173652073656e64206174206c6561737420746865206465736972656460008201527f20616d6f756e74206f66204554482e0000000000000000000000000000000000602082015250565b6000610c90602f836105ad565b9150610c9b82610c34565b604082019050919050565b60006020820190508181036000830152610cbf81610c83565b9050919050565b60008190508160005260206000209050919050565b60006020601f8301049050919050565b600082821b905092915050565b600060088302610d287fffffffffffffffffffffffffffffffffffffffffffffffffffffffffffffffff82610ceb565b610d328683610ceb565b95508019841693508086168417925050509392505050565b6000819050919050565b6000610d6f610d6a610d65846106e3565b610d4a565b6106e3565b9050919050565b6000819050919050565b610d8983610d54565b610d9d610d9582610d76565b848454610cf8565b825550505050565b600090565b610db2610da5565b610dbd818484610d80565b505050565b5b81811015610de157610dd6600082610daa565b600181019050610dc3565b5050565b601f821115610e2657610df781610cc6565b610e0084610cdb565b81016020851015610e0f578190505b610e23610e1b85610cdb565b830182610dc2565b50505b505050565b600082821c905092915050565b6000610e4960001984600802610e2b565b1980831691505092915050565b6000610e628383610e38565b9150826002028217905092915050565b610e7b826106fc565b67ffffffffffffffff811115610e9457610e936109bb565b5b610e9e8254610b71565b610ea9828285610de5565b600060209050601f831160018114610edc5760008415610eca578287015190505b610ed48582610e56565b865550610f3c565b601f198416610eea86610cc6565b60005b82811015610f1257848901518255600182019150602085019450602081019050610eed565b86831015610f2f5784890151610f2b601f891682610e38565b8355505b6001600288020188555050505b505050505050565b600081905092915050565b50565b6000610f5f600083610f44565b9150610f6a82610f4f565b600082019050919050565b6000610f8082610f52565b9150819050919050565b7f546970207472616e7366657220746f206f776e6572206661696c65642e000000600082015250565b6000610fc0601d836105ad565b9150610fcb82610f8a565b602082019050919050565b60006020820190508181036000830152610fef81610fb3565b905091905056fea2646970667358221220bd2a7aec9e356e28b4fe662289212fa6f916e2ff96cd1475da058f8c0ab78aa464736f6c634300081c0033",
  "linkReferences": {},
  "deployedLinkReferences": {}
}